:100000000C9434000C9451000C9451000C94510049
:100010000C9451000C9451000C9451000C9451001C
:100020000C9451000C9451000C9451000C9451000C
:100030000C9451000C9451000C9451000C945100FC
:100040000C9451000C94DA030C9418040C94510095
:100050000C9451000C9451000C9451000C945100DC
:100060000C9451000C94510011241FBECFEFD8E026
:10007000DEBFCDBF11E0A0E0B1E0E2EDFBE002C0E9
:1000800005900D92AC30B107D9F722E0ACE0B1E0B9
:1000900001C01D92AA31B207E1F70E9452030C94ED
:1000A000E7050C940000CF93DF931F92CDB7DEB726
:1000B000898380918E0190918F012981845F9E4F69
:1000C000FC01208380918E0190918F010196909385
:1000D0008F0180938E0180918E0190918F018038E5
:1000E000910520F010928F0110928E0181E090E036
:1000F000909392018093910180EC90E0FC0120812B
:1001000080EC90E02062FC01208300000F90DF91E2
:10011000CF910895CF93DF9300D0CDB7DEB79A8308
:10012000898310921902109218028EE490E02981BE
:100130003A81F9012081FC0120830000809118029E
:1001400090911902892BD1F38091170280911702A7
:10015000282F86EC90E02F5FFC01208300000F9099
:100160000F90DF91CF910895CF93DF93CDB7DEB796
:10017000C654D1090FB6F894DEBF0FBECDBF9E01A5
:100180002D5B3F4FF90191838083CE018B5B9F4FA5
:10019000FC017183608385E290E0FC01208185E2AF
:1001A00090E02B7FFC01208380E090E0A0E2B1E4AE
:1001B0008B839C83AD83BE832BEA3AEA4AEA50E400
:1001C0006B817C818D819E810E947105DC01CB0158
:1001D0008F839887A987BA8720E030E040E850E411
:1001E0006B817C818D819E810E947105DC01CB0138
:1001F0008B879C87AD87BE8720E030E040E85FE3D7
:100200006F81788589859A850E94510488231CF422
:1002100081E08F87B2C020E03FEF4FE757E46B8566
:100220007C858D859E850E946C0518160CF07BC020
:1002300020E030E04AE754E46B817C818D819E812F
:100240000E945604DC01CB01888B998BAA8BBB8B57
:1002500020E030E04AE755E4688979898A899B89FA
:100260000E947105DC01CB018C8B9D8BAE8BBF8B0B
:1002700020E030E040E85FE36C897D898E899F89CA
:100280000E94510488232CF481E090E0998F888F9C
:100290003FC020E03FEF4FE757E46C897D898E89AE
:1002A0009F890E946C0518164CF520E030E040E272
:1002B00051E4688979898A899B890E947105DC01EA
:1002C000CB01BC01CD010E94C804DC01CB01998F98
:1002D000888F0FC080E991E09B8F8A8F8A8D9B8DDC
:1002E0000197F1F79B8F8A8F888D998D0197998F50
:1002F000888F888D998D892B69F73FC06C897D899E
:100300008E899F890E94C804DC01CB01998F888F58
:10031000888D998D9D8F8C8F8C8D9D8D0197F1F798
:100320009D8F8C8F2AC020E030E04FE753E46F812F
:10033000788589859A850E946C051816ACF46B85C2
:100340007C858D859E850E94C804DC01CB019F8F32
:100350008E8F8E8D9F8D99A388A388A199A10197D7
:10036000F1F799A388A30FC06F81788589859A8555
:100370000E94C804DC01CB018F878F858AA38AA1E4
:100380008A95F1F78AA31A82198211C0CE018D5B7A
:100390009F4FFC012081318189819A81820F931FB7
:1003A0000E948A0089819A8101969A838983CE016D
:1003B0008B5B9F4F29813A81FC01808191812817B5
:1003C000390720F385E290E0FC01208185E290E08E
:1003D0002460FC01208380E090E0A0E2B1E48BA3E4
:1003E0009CA3ADA3BEA32BEA3AEA4AEA50E46BA170
:1003F0007CA18DA19EA10E947105DC01CB018FA380
:1004000098A7A9A7BAA720E030E040E850E46BA184
:100410007CA18DA19EA10E947105DC01CB018BA75F
:100420009CA7ADA7BEA720E030E040E85FE36FA146
:1004300078A589A59AA50E94510488231CF481E01F
:100440008FA7BEC020E03FEF4FE757E46BA57CA528
:100450008DA59EA50E946C0518160CF07BC020E0AF
:1004600030E04AE754E46BA17CA18DA19EA10E94DB
:100470005604DC01CB0188AB99ABAAABBBAB20E047
:1004800030E04AE755E468A979A98AA99BA90E94A6
:100490007105DC01CB018CAB9DABAEABBFAB20E0FB
:1004A00030E040E85FE36CA97DA98EA99FA90E9476
:1004B000510488232CF481E090E099AF88AF3FC0CD
:1004C00020E03FEF4FE757E46CA97DA98EA99FA9D3
:1004D0000E946C0518164CF520E030E040E251E433
:1004E00068A979A98AA99BA90E947105DC01CB01A1
:1004F000BC01CD010E94C804DC01CB0199AF88AFDB
:100500000FC080E991E09BAF8AAF8AAD9BAD0197A8
:10051000F1F79BAF8AAF88AD99AD019799AF88AFDE
:1005200088AD99AD892B69F74BC06CA97DA98EA9BF
:100530009FA90E94C804DC01CB0199AF88AF88ADA8
:1005400099AD9DAF8CAF8CAD9DAD0197F1F79DAF8F
:100550008CAF36C020E030E04FE753E46FA178A5C0
:1005600089A59AA50E946C0518160CF56BA57CA5AB
:100570008DA59EA50E94C804DC01CB019FAF8EAF64
:10058000CE01805C9F4F2EAD3FADFC0131832083B7
:10059000CE01805C9F4FFC01808191810197F1F732
:1005A0009E01205C3F4FF901918380831CC06FA1A5
:1005B00078A589A59AA50E94C804DC01CB018FA764
:1005C000CE018E5B9F4F2FA5FC012083CE018E5B59
:1005D0009F4FFC018081282F2A95F1F7CE018E5B79
:1005E0009F4FFC0120830000CA5BDF4F0FB6F894D9
:1005F000DEBF0FBECDBFDF91CF910895CF93DF93C4
:100600001F92CDB7DEB789838091150290911602B3
:1006100029818D569E4FFC01208380911502909177
:10062000160201969093160280931502809115028E
:10063000909116028038910520F0109216021092C7
:10064000150200000F90DF91CF910895CF93DF93B3
:1006500000D000D0CDB7DEB79C838B831A8219827D
:100660000FC089819A812B813C81820F931FFC01ED
:1006700080810E94530089819A8101969A8389839F
:100680008B819C810E94DE059C0189819A81821761
:10069000930738F300000F900F900F900F90DF91A9
:1006A000CF910895CF93DF93CDB7DEB710921702A5
:1006B0001092190210921802109290011092920159
:1006C0001092910185EC90E0FC01108284EC90E0A6
:1006D00027E6FC01208381EC90E0FC01208181EC85
:1006E00090E02864FC01208381EC90E0FC012081F3
:1006F00081EC90E02069FC01208382EC90E026E010
:10070000FC01208384E290E02CE2FC01208385E25E
:1007100090E0FC01208185E290E02460FC012083D0
:100720008CE490E023EDFC01208378946BE070E092
:1007300080E091E00E94B40080911802909119022B
:10074000892BD1F32091130230911402809115026C
:10075000909116022817390779F383E991E00E94F6
:10076000DE05BC0183E991E00E94B4008091130290
:100770009091140201969093140280931302809139
:100780001302909114028038910520F01092140207
:1007900010921302209113023091140280911502DD
:1007A000909116022817390739F610921902109203
:1007B0001802C2CF1F920F920FB60F9211248F937F
:1007C0009F93EF93FF93CF93DF93CDB7DEB78DE485
:1007D00090E0FC018081882F90E080749927892B1C
:1007E00079F08EE490E0FC0180818093900110927A
:1007F000900181E090E090931902809318020CC060
:100800008EE490E0FC0180818093900181E090E093
:1008100090931902809318020000DF91CF91FF910D
:10082000EF919F918F910F900FBE0F901F90189591
:100830001F920F920FB60F9211242F933F934F9355
:100840005F936F937F938F939F93AF93BF93EF9338
:10085000FF93CF93DF93CDB7DEB786EC90E0FC013A
:10086000808180931702809117020E94FE0281E02E
:1008700090E090939201809391010000DF91CF91DD
:10088000FF91EF91BF91AF919F918F917F916F9168
:100890005F914F913F912F910F900FBE0F901F903E
:1008A00018950E94F70408F481E008950E946A04F4
:1008B0000C9432050E942B0558F00E94240540F04C
:1008C00029F45F3F29F00C941B0551110C94660527
:1008D0000C9421050E94430568F39923B1F3552335
:1008E00091F3951B550BBB27AA2762177307840743
:1008F00038F09F5F5F4F220F331F441FAA1FA9F3D9
:1009000035D00E2E3AF0E0E832D091505040E695C6
:10091000001CCAF72BD0FE2F29D0660F771F881F27
:10092000BB1F261737074807AB07B0E809F0BB0B1A
:10093000802DBF01FF2793585F4F3AF09E3F51052E
:1009400078F00C941B050C9466055F3FE4F3983E29
:10095000D4F3869577956795B795F7959F5FC9F717
:10096000880F911D9695879597F90895E1E0660F98
:10097000771F881FBB1F621773078407BA0720F011
:10098000621B730B840BBA0BEE1F88F7E09508957A
:100990000E944B0588F09F5798F0B92F9927B751BF
:1009A000B0F0E1F0660F771F881F991F1AF0BA9513
:1009B000C9F714C0B13091F00E946505B1E0089507
:1009C0000C946505672F782F8827B85F39F0B93FF9
:1009D000CCF3869577956795B395D9F73EF49095C6
:1009E0008095709561957F4F8F4F9F4F0895990F18
:1009F0000008550FAA0BE0E8FEEF16161706E807E9
:100A0000F907C0F012161306E407F50798F0621B09
:100A1000730B840B950B39F40A2661F0232B242BDE
:100A2000252B21F408950A2609F4A140A6958FEFFD
:100A3000811D811D089597F99F6780E870E060E04F
:100A400008959FEF80EC089500240A941616170667
:100A500018060906089500240A94121613061406AF
:100A600005060895092E0394000C11F4882352F012
:100A7000BB0F40F4BF2B11F460FF04C06F5F7F4FCA
:100A80008F4F9F4F089557FD9058440F551F59F0B1
:100A90005F3F71F04795880F97FB991F61F09F3F6B
:100AA00079F087950895121613061406551FF2CF94
:100AB0004695F1DF08C0161617061806991FF1CFE4
:100AC00086957105610508940895E894BB2766270B
:100AD0007727CB0197F908950E94F70408F48FEF68
:100AE00008950E9484050C9432050E94240538F074
:100AF0000E942B0520F0952311F00C941B050C94FB
:100B0000210511240C9466050E94430570F3959FFE
:100B1000C1F3950F50E0551F629FF001729FBB27F4
:100B2000F00DB11D639FAA27F00DB11DAA1F649F90
:100B30006627B00DA11D661F829F2227B00DA11D43
:100B4000621F739FB00DA11D621F839FA00D611DC9
:100B5000221F749F3327A00D611D231F849F600DEA
:100B6000211D822F762F6A2F11249F5750409AF013
:100B7000F1F088234AF0EE0FFF1FBB1F661F771F9F
:100B8000881F91505040A9F79E3F510580F00C946A
:100B90001B050C9466055F3FE4F3983ED4F38695FD
:100BA00077956795B795F795E7959F5FC1F7FE2B0A
:100BB000880F911D9695879597F90895FC010190EE
:100BC0000020E9F7809590958E0F9F1F0895F89467
:020BD000FFCF55
:0C0BD20048656C6C6F20576F726C6400FB
:00000001FF
