:100000000C9434000C9451000C9451000C94510049
:100010000C9451000C9451000C9451000C9451001C
:100020000C9451000C9451000C9451000C9451000C
:100030000C9451000C9451000C9451000C945100FC
:100040000C9451000C9451000C9478010C94B9015B
:100050000C9467010C9451000C9451000C945100C5
:100060000C9451000C94510011241FBECFEFD8E026
:10007000DEBFCDBF11E0A0E0B1E0ECE8F6E002C0E9
:1000800005900D92A233B107D9F721E0A2E3B1E0C8
:1000900001C01D92A93BB207E1F70E94B6000C9483
:1000A00044030C940000CF93DF931F92CDB7DEB7CB
:1000B000898380913701909138012981875C9E4F17
:1000C000FC01208380913701909138010196909333
:1000D0003801809337018091370190913801803841
:1000E000910520F0109238011092370181E090E0E4
:1000F000909334018093330180EC90E0FC012081E7
:1001000080EC90E02062FC01208300000F90DF91E2
:10011000CF910895CF93DF9300D000D0CDB7DEB755
:100120009C838B831A8219820FC089819A812B81CB
:100130003C81820F931FFC0180810E9453008981C2
:100140009A8101969A8389838B819C810E943B03CB
:100150009C0189819A818217930738F300000F90E0
:100160000F900F900F90DF91CF910895CF93DF9371
:10017000CDB7DEB72E970FB6F894DEBF0FBECDBF5A
:1001800085EC90E0FC01108284EC90E027E6FC0115
:10019000208381EC90E0FC01208181EC90E02864D8
:1001A000FC01208381EC90E0FC01208181EC90E057
:1001B0002069FC01208382EC90E026E0FC01208392
:1001C000789480E091E00E948A00809133019091C0
:1001D0003401892B49F081EC90E0FC01208181EC15
:1001E00090E02062FC01208380E090E0A0E2B1E496
:1001F00089839A83AB83BC8320E030E04AE755E4EF
:1002000069817A818B819C810E94A602DC01CB01ED
:100210008D839E83AF83B88720E030E040E85FE3C2
:100220006D817E818F8198850E94200288232CF425
:1002300081E090E09A8789873FC020E03FEF4FE759
:1002400057E46D817E818F8198850E94A1021816E6
:100250004CF520E030E040E251E469817A818B8105
:100260009C810E94A602DC01CB01BC01CD010E9451
:100270002502DC01CB019A8789870FC080E991E0D4
:100280009C878B878B859C850197F1F79C878B8753
:1002900089859A8501979A87898789859A85892B87
:1002A00069F714C06D817E818F8198850E94250237
:1002B000DC01CB019A87898789859A859E878D87FE
:1002C0008D859E850197F1F79E878D877ECF1F9242
:1002D0000F920FB60F921124CF93DF93CDB7DEB7F5
:1002E0000000DF91CF910F900FBE0F901F901895D7
:1002F0001F920F920FB60F9211242F933F934F939B
:100300005F936F937F938F939F93AF93BF93EF937D
:10031000FF93CF93DF93CDB7DEB786EC90E0FC017F
:1003200080818093320180E291E00E948A00809176
:1003300032010E9453008EE291E00E948A0081E027
:1003400090E090933401809333010000DF91CF91CE
:10035000FF91EF91BF91AF919F918F917F916F919D
:100360005F914F913F912F910F900FBE0F901F9073
:1003700018951F920F920FB60F9211242F933F934F
:100380008F939F93EF93FF93CF93DF93CDB7DEB718
:100390008091330190913401892BD9F1209135015D
:1003A0003091360180913701909138012817390733
:1003B00081F1209135013091360186EC90E0275C87
:1003C0003E4FF9012081FC012083809135019091FD
:1003D0003601019690933601809335018091350165
:1003E000909136018038910520F0109236011092DC
:1003F000350120913501309136018091370190917E
:1004000038012817390771F4109234011092330122
:1004100009C080EC90E0FC01208180EC90E02F7D11
:10042000FC0120830000DF91CF91FF91EF919F911C
:100430008F913F912F910F900FBE0F901F901895A5
:100440000E94540208F481E008950E94800288F01E
:100450009F5798F0B92F9927B751B0F0E1F0660F88
:10046000771F881F991F1AF0BA95C9F714C0B130C9
:1004700091F00E949A02B1E008950C949A02672FBD
:10048000782F8827B85F39F0B93FCCF386957795F8
:100490006795B395D9F73EF49095809570956195E1
:1004A0007F4F8F4F9F4F0895990F0008550FAA0B4C
:1004B000E0E8FEEF16161706E807F907C0F0121677
:1004C0001306E407F50798F0621B730B840B950B7A
:1004D00039F40A2661F0232B242B252B21F40895CF
:1004E0000A2609F4A140A6958FEF811D811D08956C
:1004F00057FD9058440F551F59F05F3F71F04795D5
:10050000880F97FB991F61F09F3F79F087950895B9
:10051000121613061406551FF2CF4695F1DF08C0D8
:10052000161617061806991FF1CF869571056105F5
:1005300008940895E894BB2766277727CB0197F99D
:1005400008950E94540208F48FEF08950E94B902A2
:100550000C942A030E941C0338F00E94230320F00D
:10056000952311F00C9413030C94190311240C948B
:100570009B020E94780270F3959FC1F3950F50E0A3
:10058000551F629FF001729FBB27F00DB11D639F45
:10059000AA27F00DB11DAA1F649F6627B00DA11DEB
:1005A000661F829F2227B00DA11D621F739FB00D91
:1005B000A11D621F839FA00D611D221F749F332701
:1005C000A00D611D231F849F600D211D822F762F9A
:1005D0006A2F11249F5750409AF0F1F088234AF077
:1005E000EE0FFF1FBB1F661F771F881F91505040E3
:1005F000A9F79E3F510580F00C9413030C949B02C5
:100600005F3FE4F3983ED4F3869577956795B79569
:10061000F795E7959F5FC1F7FE2B880F911D969583
:10062000879597F9089597F99F6780E870E060E0F3
:1006300008959FEF80EC089500240A94161617067B
:1006400018060906089500240A94121613061406C3
:1006500005060895092E0394000C11F4882352F026
:10066000BB0F40F4BF2B11F460FF04C06F5F7F4FDE
:100670008F4F9F4F0895FC0101900020E9F780956E
:0C06800090958E0F9F1F0895F894FFCFF7
:10068C000D0A57656C636F6D6520546F204D792092
:10069C004563686F2050726F6772616D3A0D0A0086
:1006AC00596F7520656E74657265643A20000D0A89
:0206BC0000003C
:00000001FF
