:100000000C9434000C943E000C943E000C943E0082
:100010000C943E000C9440000C943E000C943E0066
:100020000C943E000C943E000C943E000C943E0058
:100030000C943E000C9401010C943E000C943E0084
:100040000C943E000C943E000C943E000C943E0038
:100050000C943E000C943E000C943E000C943E0028
:100060000C943E000C943E0011241FBECFEFD8E04C
:10007000DEBFCDBF0E942F010C949F020C940000A4
:100080001F920F920FB60F9211242F933F934F930D
:100090005F936F937F938F939F93AF93BF93EF93F0
:1000A000FF93CF93DF93CDB7DEB72E97DEBFCDBFE3
:1000B00080E090E0A0E2B1E489839A83AB83BC83C3
:1000C00020E030E04AE755E469817A818B819C81A8
:1000D0000E940A02DC01CB018D839E83AF83B88727
:1000E00020E030E040E85FE36D817E818F8198857C
:1000F0000E94840188232CF481E090E09A8789870C
:100100003FC020E03FEF4FE757E46D817E818F8154
:1001100098850E94050218164CF520E030E040E278
:1001200051E469817A818B819C810E940A02DC0101
:10013000CB01BC01CD010E948901DC01CB019A8772
:1001400089870FC080E991E09C878B878B859C8590
:100150000197F1F79C878B8789859A8501979A8704
:10016000898789859A85892B69F714C06D817E817D
:100170008F8198850E948901DC01CB019A8789874C
:1001800089859A859E878D878D859E850197F1F754
:100190009E878D8789E290E0FC018081882F90E026
:1001A00084709927892B51F085E290E0FC01308121
:1001B00085E290E020E12327FC0120838BE390E09F
:1001C000FC0120818BE390E02460FC01208300008F
:1001D0002E960FB6F894DEBF0FBECDBFDF91CF9144
:1001E000FF91EF91BF91AF919F918F917F916F910F
:1001F0005F914F913F912F910F900FBE0F901F90E5
:1002000018951F920F920FB60F9211242F933F93C0
:100210008F939F93EF93FF93CF93DF93CDB7DEB789
:1002200085E290E0FC01308185E290E020E2232726
:10023000FC01208384E890E02BE731EEFC01318360
:1002400020830000DF91CF91FF91EF919F918F91DB
:100250003F912F910F900FBE0F901F901895CF9345
:10026000DF93CDB7DEB784E290E0FC01208184E229
:1002700090E02062FC01208384E290E0FC01208178
:1002800084E290E02061FC0120838AE290E0FC019E
:1002900020818AE290E02B7FFC0120838BE390E0B9
:1002A000FC0120818BE390E02460FC01208388E640
:1002B00090E0FC01208188E690E02460FC0120832E
:1002C0008DE690E0FC0120818DE690E02460FC0149
:1002D000208384E890E02BE731EEFC01318320831A
:1002E00081E890E025E0FC01208380E890E0FC01BB
:1002F00010828FE690E0FC0120818FE690E0216083
:10030000FC0120837894FFCF0E94B80108F481E0BB
:1003100008950E94E40188F09F5798F0B92F99271B
:10032000B751B0F0E1F0660F771F881F991F1AF0E0
:10033000BA95C9F714C0B13091F00E94FE01B1E046
:1003400008950C94FE01672F782F8827B85F39F045
:10035000B93FCCF3869577956795B395D9F73EF479
:1003600090958095709561957F4F8F4F9F4F089521
:10037000990F0008550FAA0BE0E8FEEF16161706B6
:10038000E807F907C0F012161306E407F50798F01E
:10039000621B730B840B950B39F40A2661F0232B37
:1003A000242B252B21F408950A2609F4A140A695B3
:1003B0008FEF811D811D089557FD9058440F551FE3
:1003C00059F05F3F71F04795880F97FB991F61F0D7
:1003D0009F3F79F087950895121613061406551F4E
:1003E000F2CF4695F1DF08C0161617061806991FBA
:1003F000F1CF86957105610508940895E894BB27AF
:1004000066277727CB0197F908950E94B80108F471
:100410008FEF08950E941D020C948E020E948002AC
:1004200038F00E94870220F0952311F00C94770297
:100430000C947D0211240C94FF010E94DC0170F3E6
:10044000959FC1F3950F50E0551F629FF001729F79
:10045000BB27F00DB11D639FAA27F00DB11DAA1F88
:10046000649F6627B00DA11D661F829F2227B00DD5
:10047000A11D621F739FB00DA11D621F839FA00D60
:10048000611D221F749F3327A00D611D231F849FB0
:10049000600D211D822F762F6A2F11249F57504007
:1004A0009AF0F1F088234AF0EE0FFF1FBB1F661F82
:1004B000771F881F91505040A9F79E3F510580F04B
:1004C0000C9477020C94FF015F3FE4F3983ED4F361
:1004D000869577956795B795F795E7959F5FC1F7EF
:1004E000FE2B880F911D9695879597F9089597F99A
:1004F0009F6780E870E060E008959FEF80EC0895CA
:1005000000240A94161617061806090608950024F2
:100510000A9412161306140605060895092E03946C
:10052000000C11F4882352F0BB0F40F4BF2B11F4E0
:1005300060FF04C06F5F7F4F8F4F9F4F0895F89407
:02054000FFCFEB
:00000001FF
