:100000000C9434000C943E000C943E000C943E0082
:100010000C943E000C943E000C943E000C943E0068
:100020000C943E000C943E000C943E000C943E0058
:100030000C943E000C9440000C943E000C943E0046
:100040000C943E000C943E000C943E000C943E0038
:100050000C943E000C943E000C943E000C943E0028
:100060000C943E000C943E0011241FBECFEFD8E04C
:10007000DEBFCDBF0E946E000C9496000C94000071
:100080001F920F920FB60F9211242F933F938F93CD
:100090009F93EF93FF93CF93DF93CDB7DEB785E2C6
:1000A00090E0FC01308185E290E020E22327FC0112
:1000B000208384E890E02BE731EEFC01318320833C
:1000C0000000DF91CF91FF91EF919F918F913F9130
:1000D0002F910F900FBE0F901F901895CF93DF9325
:1000E000CDB7DEB784E290E0FC01208184E290E0AD
:1000F0002062FC01208384E890E02BE731EEFC01D4
:100100003183208381E890E025E0FC01208380E8B2
:1001100090E0FC0110828FE690E0FC0120818FE6E8
:1001200090E02160FC0120837894FFCFF894FFCF0A
:00000001FF
